S00C00006D61696E2E7372656373
S11300000C94AB000C9407050C94C8000C94C80025
S11300100C94A2050C94C8000C94C8000C94C8005D
S11300200C94C8000C942C050C94C8000C94C800C3
S11300300C94C8000C94C8000C94C8000C94C8001C
S11300400C94C8000C94C8000C94C8000C94C8000C
S11300500C94C8006E616E00696E660000407A10F0
S1130060F35A00A0724E18090010A5D4E80000E865
S11300707648170000E40B54020000CA9A3B0000C3
S113008000E1F505000080969800000040420F0052
S11300900000A08601000000102700000000E80313
S11300A0000000006400000000000A0000000000DE
S11300B00100000000002C76D888DC674F0823DF9D
S11300C0C1DFAE59E1B1B796E5E3E453C63AE65170
S11300D0997696E8E6C28426EB898C9B62ED407C97
S11300E06FFCEFBC9C9F40F2BAA56FA5F490055A33
S11300F02AF75C936B6CF9676DC11BFCE0E40D4758
S1130100FEF520E6B500D0ED902E0300943577057A
S11301100080841E080000204E0A000000C80C3332
S11301203333330F986E12831141EF8D2114893BC1
S1130130E65516CFFEE6DB18D1844B381BF77C1D41
S1130140901DA4BBE424203284725E228100C9F194
S113015024ECA1E53D2711241FBECFE5D4E0DEBF8A
S1130160CDBF10E0A0E6B0E0E0E6FCE102C00590FF
S11301700D92AE38B107D9F720E0AEE8B0E001C087
S11301801D92A93CB207E1F70E94BD040C942E0E07
S11301900C940000AFE0B7E21197F1F700C0000043
S11301A0B1992DC0E2B3E23051F5B19903C0E2B385
S11301B0E230D9F3DC01ED91FC9111974E0F5F1FF2
S11301C011965C934E93FB0140815181240F351F9E
S11301D0318320832D913C9111972038354220F0B2
S11301E020E835E22D933C93DB018D919C918F3770
S11301F09E4328F08FE79EE3FB019183808308955B
S1130200DC01ED91FC91E43CF940C8F1EFE0F7E248
S11302103197F1F700C00000B29937C0E2B3E23081
S1130220A1F5B29903C0E2B3E230D9F3DC01ED9158
S1130230FC91DF01A41BB50BFC01B183A083DB019E
S11302404D915C911197FA01E21BF30BED93FC9332
S1130250DC012D913C912935324028F42CED35E018
S1130260FC0131832083DB018D919C91893E934075
S113027060F484EC99E0FB01918380830895DC01B0
S11302804D935C93FB01318320830895EFE0F7E203
S11302903197F1F700C00000B09916C0B09BFECFB3
S11302A0F2B3E2E0EF27E2BBE2B3E11107C0FC01E5
S11302B011821082FB01118210820895FC01518386
S11302C04083FB013183208308959BB3282F207F33
S11302D09F70922B9BBBDA98DB9A32E03A95F1F748
S11302E000C0DB98E7ECF0E03197F1F700C00000C4
S11302F02BB3F0E18F9FC0011124922F9F70892BA3
S11303008BBBDB9A32E03A95F1F700C0DB988FE9BA
S11303109FE00197F1F700C0000008959BB3282FD8
S1130320207F9F70922B9BBBDA9ADB9A32E03A953E
S1130330F1F700C0DB98E7ECF0E03197F1F700C08B
S113034000002BB3F0E18F9FC0011124922F9F7006
S1130350892B8BBBDB9A32E03A95F1F700C0DB982E
S11303608FE99FE00197F1F700C0000008958FEF37
S11303708ABB8FE39CE90197F1F700C0000082E09B
S11303800E94650188E20E9465018CE00E9465017B
S113039086E00E94650181E00E9465018FE99FE08B
S11303A00197F1F700C000000895CF93DF93EC01AB
S11303B08881882331F021960E948E0189918111D0
S11303C0FBCFDF91CF910895CF93DF93EA018111A1
S11303D008C0603178F4862F8F7080680E946501B0
S11303E009C0813039F4603128F4862F8F70806C15
S11303F00E946501CE010E94D501DF91CF9108953D
S113040081E00E9465018FE99FE00197F1F700C048
S1130410000080E80E94650108950E94B7010E94CF
S1130420000240E750E060E080E00E94E40147E71A
S113043050E066E080E00E94E4014EE750E06DE0A9
S113044080E00E94E4010895CF92DF92EF92FF9240
S11304500F931F93CF93DF93C0919E00D0919F0081
S113046080919A0090919B008C179D0709F444C0D9
S1130470C230D10508F440C024E62C9FB0012D9F62
S1130480700D11246C507E4F7093C8006093C700A8
S113049080919C0090919D00289F8001299F100DC0
S11304A011240C501E4F1093BF000093BE00C09047
S11304B0C300D090C400E090C500F090C60080E076
S11304C090E00E948707A70196010E943D086B01F6
S11304D07C01B80180E090E00E9487079B01AC0199
S11304E0C701B6010E94F3066093C3007093C40071
S11304F08093C5009093C600D0939B00C0939A004C
S11305006091C3007091C4008091C5009091C600B1
S11305100E945B077093C1006093C0008FE697E16F
S11305200197F1F700C00000DF91CF911F910F9167
S1130530FF90EF90DF90CF9008954F925F926F926B
S11305407F928F929F92AF92BF92CF92DF92EF925F
S1130550FF920F931F93CF93DF938091C8008F93E3
S11305608091C7008F9303E810E01F930F93C4EBAF
S1130570D0E0DF93CF930E94AE0DAE0160E081E046
S11305800E94E401809197008F93809196008F934D
S11305901F930F93DF93CF930E94AE0DAE0166E0DD
S11305A081E00E94E40180918E0090918F00A091DF
S11305B09000B0919100BF93AF939F938F9387E87E
S11305C090E09F938F93DF93CF930E94AE0DAE0183
S11305D06DE081E00E94E4016091A0007091A100AF
S11305E08091A2009091A3002091920030919300F9
S11305F040919400509195000E948B066093A00056
S11306007093A1008093A2009093A3006091A00036
S11306107091A1008091A2009091A3002091C30049
S11306203091C4004091C5005091C6000E948A06D2
S11306306093A0007093A1008093A2009093A30004
S1130640C090A400D090A500E090A600F090A70070
S11306502091A0003091A1004091A2005091A300EC
S1130660C701B6010E943D084B015C0160916A001C
S113067070916B0080E090E00E9487079B01AC01C1
S1130680C501B4010E94F30660938E0070938F003D
S1130690809390009093910080908E0090908F00B2
S11306A0A0909000B09091002DEC3CEC4CE45EE303
S11306B0C701B6010E948A062DB73EB72C5E3F4F94
S11306C00FB6F8943EBF0FBE2DBFA50194010E9442
S11306D0390818160CF045C01092C200C09162008F
S11306E0D091630080919600909197008C0F9D1F8C
S11306F0909397008093960080909200909093003E
S1130700A0909400B0909500609168007091690089
S113071080E090E00E9487079B01AC016091640037
S11307207091650080916600909167000E94F306C5
S11307302B013C01BE0180E090E00E9487079B01F1
S1130740AC01C301B2010E943D08A50194010E94BD
S11307508B0660939200709393008093940090931F
S1130760950080908E0090908F00A0909000B090A3
S113077091002DEC3CEC4CE45EE3C701B6010E9411
S11307808B06A50194010E94EF0688230CF048C053
S113079081E08093C200C0916200D0916300809197
S11307A09600909197008C1B9D0B909397008093DB
S11307B096008090920090909300A0909400B09046
S11307C09500609168007091690080E090E00E945B
S11307D087079B01AC016091640070916500809172
S11307E06600909167000E94F3062B013C01BE0154
S11307F080E090E00E9487079B01AC01C301B20135
S11308000E943D089B01AC01C501B4010E948A0607
S1130810609392007093930080939400909395005A
S113082020918E0030918F00409190005091910062
S1130830C701B6010E94EF06882309F48DC0809198
S1130840C200811146C0C0916000D09161008091C6
S11308509600909197008C1B9D0B9093970080932A
S11308609600C0909200D0909300E0909400F09095
S11308709500609168007091690080E090E00E94AA
S113088087079B01AC0160916400709165008091C1
S11308906600909167000E94F3064B015C01BE0163
S11308A080E090E00E9487079B01AC01C501B40180
S11308B00E943D089B01AC01C701B6010E948A0653
S11308C060939200709393008093940090939500AA
S11308D043C0C0916000D0916100809196009091D6
S11308E097008C0F9D1F9093970080939600C09063
S11308F09200D0909300E0909400F0909500609165
S113090068007091690080E090E00E9487079B0175
S1130910AC016091640070916500809166009091D3
S113092067000E94F3064B015C01BE0180E090E089
S11309300E9487079B01AC01C501B4010E943D08D8
S1130940A70196010E948B06609392007093930016
S11309508093940090939500DF91CF911F910F9114
S1130960FF90EF90DF90CF90BF90AF909F908F90CB
S11309707F906F905F904F9008958AB38C6F8ABB7D
S11309808BB38BBB17BA1BBA81B3826381BB12BA18
S113099085E083BF83E682BF84E085BD82E884BDB1
S11309A08FB5826A8FBD8EB589618EBD1DBC1CBC9E
S11309B08EE387BD8FE786BD1BBC1ABC19BC18BC6F
S11309C081E489BF80E48BBF83E085BF78940E9473
S11309D00D0260916A0070916B0080E090E00E94CB
S11309E087076093A0007093A1008093A200909366
S11309F0A3000E9424020E949D022FEF89E698E141
S1130A00215080409040E1F700C00000F2CF1F92D7
S1130A100F920FB60F9211248F939F93AF93BF93AE
S1130A208091B0009091B100A091B200B091B30058
S1130A300196A11DB11D8093B0009093B100A093C5
S1130A40B200B093B300BF91AF919F918F910F907B
S1130A500FBE0F901F9018951F920F920FB60F9212
S1130A6011242F933F934F935F936F937F938F93AF
S1130A709F93AF93BF93EF93FF938091A8009091BE
S1130A80A900889708F442C01092A9001092A80007
S1130A902091B0003091B1004091B2005091B30068
S1130AA0A8EEB3E00E943D0C20EC33E140E050E0BE
S1130AB00E941B0C30939F0020939E00211531054A
S1130AC0E9F0809198009091990001969093990093
S1130AD080939800019791F430939D0020939C009B
S1130AE082B3811105C0109299001092980006C03B
S1130AF082E090E090939900809398001092B00067
S1130B001092B1001092B2001092B3008091A8002C
S1130B109091A90001969093A9008093A80083E680
S1130B2082BFFF91EF91BF91AF919F918F917F9180
S1130B306F915F914F913F912F910F900FBE0F9046
S1130B401F9018951F920F920FB60F9211242F9396
S1130B503F934F935F936F937F938F939F93AF9341
S1130B60BF93EF93FF938091AA009091AB008036DE
S1130B70910508F4B3C01092AB001092AA00B19989
S1130B801DC082B38230D1F420916C0030916D008D
S1130B9040916E0050916F006CEA70E08EEA90E034
S1130BA00E94CA0080919E0090919F00009709F4D2
S1130BB077C090939D0080939C0072C0B2991AC034
S1130BC082B38230B9F420916C0030916D00409171
S1130BD06E0050916F006CEA70E08EEA90E00E9423
S1130BE0000180919E0090919F0090939D008093BE
S1130BF09C0056C0B09954C020916C0030916D0097
S1130C0040916E0050916F006CEA70E08EEA90E0C3
S1130C100E94460182B381111DC01092C30010923C
S1130C20C4001092C5001092C60010929200109257
S1130C3093001092940010929500109297001092D5
S1130C4096001092A4001092A5001092A600109293
S1130C50A70026C080E090E0A0EAB0E48093C3003F
S1130C609093C400A093C500B093C60080939200F3
S1130C7090939300A0939400B093950084E690E041
S1130C80909397008093960080E090E0A0E8B0E411
S1130C908093A4009093A500A093A600B093A7000E
S1130CA08FEC97E00197F1F700C000008091AF004E
S1130CB08BBD21E08091AE009091AF00892B09F4A7
S1130CC020E02ABD8091AD0089BD21E08091AC0077
S1130CD09091AD00892B09F420E028BD8091AA00F1
S1130CE09091AB0001969093AB008093AA0082E8A8
S1130CF084BDFF91EF91BF91AF919F918F917F91AF
S1130D006F915F914F913F912F910F900FBE0F9074
S1130D101F9018955058BB27AA270ED070C161D1D7
S1130D2030F066D120F031F49F3F11F41EF456C127
S1130D300EF4E095E7FB4CC1E92F72D180F3BA17AA
S1130D40620773078407950718F071F49EF58AC14A
S1130D500EF4E0950B2EBA2FA02D0B01B9019001D2
S1130D600C01CA01A0011124FF27591B99F0593F16
S1130D7050F4503E68F11A16F040A22F232F342F5E
S1130D804427585FF3CF469537952795A795F040AC
S1130D905395C9F77EF41F16BA0B620B730B840BC1
S1130DA0BAF09150A1F0FF0FBB1F661F771F881F79
S1130DB0C2F70EC0BA0F621F731F841F48F48795D1
S1130DC077956795B795F7959E3F08F0B3CF9395C0
S1130DD0880F08F09927EE0F979587950895D4D03A
S1130DE008F481E008950CD00AC102D140F0F9D092
S1130DF030F021F45F3F19F0EBC0511134C1EEC063
S1130E000FD198F39923C9F35523B1F3951B550BCF
S1130E10BB27AA2762177307840738F09F5F5F4FC9
S1130E20220F331F441FAA1FA9F333D00E2E3AF00A
S1130E30E0E830D091505040E695001CCAF729D024
S1130E40FE2F27D0660F771F881FBB1F2617370773
S1130E504807AB07B0E809F0BB0B802DBF01FF27A3
S1130E6093585F4F2AF09E3F510568F0B1C0FBC014
S1130E705F3FECF3983EDCF3869577956795B795DD
S1130E80F7959F5FC9F7880F911D9695879597F9F8
S1130E900895E1E0660F771F881FBB1F6217730771
S1130EA08407BA0720F0621B730B840BBA0BEE1F86
S1130EB088F7E0950895BCD088F09F5790F0B92F3B
S1130EC09927B751A0F0D1F0660F771F881F991F9B
S1130ED01AF0BA95C9F712C0B13081F0C3D0B1E0AD
S1130EE00895C0C0672F782F8827B85F39F0B93FBD
S1130EF0CCF3869577956795B395D9F73EF490959D
S1130F008095709561957F4F8F4F9F4F0895E8941A
S1130F1009C097FB3EF490958095709561957F4F3D
S1130F208F4F9F4F9923A9F0F92F96E9BB279395EB
S1130F30F695879577956795B795F111F8CFFAF4FB
S1130F40BB0F11F460FF1BC06F5F7F4F8F4F9F4F2C
S1130F5016C0882311F096E911C0772321F09EE88A
S1130F60872F762F05C0662371F096E8862F70E0F0
S1130F7060E02AF09A95660F771F881FDAF7880FCA
S1130F809695879597F90895990F0008550FAA0B20
S1130F90E0E8FEEF16161706E807F907C0F0121688
S1130FA01306E407F50798F0621B730B840B950B8B
S1130FB039F40A2661F0232B242B252B21F40895E0
S1130FC00A2609F4A140A6958FEF811D811D08957D
S1130FD097F99F6780E870E060E008959FEF80ECE8
S1130FE0089500240A94161617061806090608958B
S1130FF000240A9412161306140605060895092EF1
S11310000394000C11F4882352F0BB0F40F4BF2B5F
S113101011F460FF04C06F5F7F4F8F4F9F4F08959F
S113102057FD9058440F551F59F05F3F71F0479595
S1131030880F97FB991F61F09F3F79F0879508957A
S1131040121613061406551FF2CF4695F1DF08C099
S1131050161617061806991FF1CF869571056105B6
S113106008940895E894BB2766277727CB0197F95E
S113107008958ADF08F48FEF08950BD0C0CFB1DF55
S113108028F0B6DF18F0952309F0A2CFA7CF1124DA
S1131090EACFC6DFA0F3959FD1F3950F50E0551F1B
S11310A0629FF001729FBB27F00DB11D639FAA27B9
S11310B0F00DB11DAA1F649F6627B00DA11D661F08
S11310C0829F2227B00DA11D621F739FB00DA11D29
S11310D0621F839FA00D611D221F749F3327A00DE3
S11310E0611D231F849F600D211D822F762F6A2F7F
S11310F011249F5750408AF0E1F088234AF0EE0F04
S1131100FF1FBB1F661F771F881F91505040A9F710
S11311109E3F510570F05CCFA6CF5F3FECF3983E45
S1131120DCF3869577956795B795F795E7959F5F77
S1131130C1F7FE2B880F911D9695879597F9089511
S1131140A3E1B0E0E6EAF8E00C94480C7C011B0152
S11311506A01FC0117821682838181FF66C3BE0186
S11311606F5F7F4F4B01F7019381F10193FD8591EF
S113117093FF81911F01882309F453C3853239F405
S113118093FD859193FF81911F01853239F4B70155
S113119090E00E947C0D56016501E5CF10E0512CD2
S11311A020E02032A0F48B3269F030F4803259F020
S11311B0833269F420612CC08D3239F0803339F4E4
S11311C0216026C02260246023C0286021C027FD3E
S11311D027C030ED380F3A3078F426FF06C0FAE025
S11311E01F9F300D1124132F13C06AE0569E300D3B
S11311F01124532E20620CC08E3221F426FD11C31B
S1131200206406C08C3611F4206802C0883641F48C
S1131210F10193FD859193FF81911F018111C1CF4C
S11312209BEB980F933018F42061805E06C09BE915
S1131230980F933008F0AAC12F7E26FF16E02F7373
S1131240722E853621F4F22FF0647F2E08C0863684
S113125021F4622F6068762E02C01111115077FEBE
S113126007C01C3348F444244394410E27E00BC0C8
S1131270183030F4212F06C027E04CE3442E03C07D
S113128027E017E0412C560174E0A70EB11CF601CB
S11312906081718182819381042DA4010E948E0C4E
S11312A06C01098100FF02C003FF06C071FC07C086
S11312B072FC08C0612C08C03DE2632E05C02BE21D
S11312C0622E02C090E2692E802F8C7099F1662004
S11312D011F084E001C083E0851510F0512C0BC09F
S11312E0581A73FC08C0B70180E290E00E947C0D9C
S11312F05A94C9F7F3CF662029F0B701862D90E000
S11313000E947C0D03FD03C008E510E002C004E563
S113131010E0F72DF0717F2EF8018491882309F4F1
S113132076C271108052B70190E00E947C0D0F5F6D
S11313301F4FF2CF77FE0FC04C0C04FF04C08A810C
S1131340813309F44A94141474F5F8E0F41578F52B
S113135088E0482E2CC076FC2AC0812F90E08C15A2
S11313609D059CF06CEFC6166FEFD60674F0772DD2
S11313707068772E0AC0E2E0F0E0EC0FFD1FE10F89
S1131380F11D8081803319F411501111F4CF77FECF
S11313900EC044244394410E812F90E0C816D90610
S11313A02CF41C1904C04424439401C010E077FEBB
S11313B007C01C141D043CF496012F5F3F4F05C069
S11313C025E030E002C021E030E0662011F02F5F1C
S11313D03F4F112331F0412F50E04F5F5F4F240FF7
S11313E0351F452D50E02417350714F4521A01C057
S11313F0512C872D897049F4552039F0B70180E2CA
S113140090E00E947C0D5A94F7CF662029F0B70132
S1131410862D90E00E947C0D73FC09C0552039F0A4
S1131420B70180E390E00E947C0D5A94F7CF77FED9
S11314305FC09C2D8D2DD7FE02C090E080E0692E08
S1131440782E40E050E0C601841991099D878C876D
S1131450960126193709280D391D812F90E0EE27B2
S1131460FF27E81BF90BFF87EE87FFEF6F167F0658
S113147069F4B7018EE290E02B8B3A8B488B598B41
S11314800E947C0D598948893A892B89C614D7044E
S113149054F06C857D85661577052CF4F901E40F0D
S11314A0F51F818101C080E371E0671A71084F5F05
S11314B05F4FEE85FF856E167F066CF0B70190E0F6
S11314C02B8B3A8B488B598B0E947C0D2B893A8944
S11314D048895989CACF6C147D0439F49A819633AA
S11314E018F4953311F404FF81E3B70190E04BC085
S11314F08A81813309F00F7EB70190E00E947C0D50
S1131500111105C074FE18C085E490E017C0B7013E
S11315108EE290E00E947C0D82E066246394680E63
S1131520F401E80FF11D8081B70190E00E947C0D69
S1131530115041F3862DF1CF85E690E0B7010E946A
S11315407C0DD7FC05C0C114D10439F404FF05C0D7
S1131550D194C194D1088DE201C08BE2B70190E02F
S11315600E947C0D80E36AE0C616D1042CF08F5FE4
S1131570FAE0CF1AD108F7CFB70190E00E947C0DB2
S1131580B701C601C0960E947C0D41C1833631F07B
S1131590833779F0833509F058C021C0560172E0D1
S11315A0A70EB11CF6018081898301E010E064017B
S11315B014C05601F2E0AF0EB11CF601C080D18018
S11315C026FF03C0612F70E002C06FEF7FEFC601FA
S11315D02B8B0E94710D8C012B892F7715C056011E
S11315E0F2E0AF0EB11CF601C080D18026FF03C02B
S11315F0612F70E002C06FEF7FEFC6012B8B0E945A
S1131600660D8C012B892068722E23FD1AC0852D4E
S113161090E008171907A8F4B70180E290E00E944F
S11316207C0D5A94F4CFF60177FC859177FE819175
S11316306F01B70190E00E947C0D51105A94015043
S113164011090115110579F7E2C0843611F08936C4
S113165051F5560127FF09C0F4E0AF0EB11CF601A5
S113166060817181828193810AC0F2E0AF0EB11C66
S1131670F60160817181882777FD8095982F022F6C
S11316800F7697FF08C090958095709561957F4F70
S11316908F4F9F4F00682AE030E0A4010E94D00DD4
S11316A0C82EC8183EC0022F853721F40F7E2AE0C9
S11316B030E01DC0097F8F3691F018F4883559F059
S11316C0B0C0803719F0883711F0ABC0006104FF57
S11316D009C0046007C024FF08C0066006C028E0F3
S11316E030E005C020E130E002C020E132E05601E4
S11316F007FF09C0F4E0AF0EB11CF60160817181EF
S11317008281938108C0F2E0AF0EB11CF6016081C2
S1131710718180E090E0A4010E94D00DC82EC81809
S11317200F7706FF0BC0202F2E7FC11650F404FF45
S11317300AC002FD08C0202F2E7E05C0DC2C202FFD
S113174003C0DC2C01C0D12E24FF0DC0FE01EC0D22
S1131750F11D8081803311F4297E09C022FF06C067
S1131760D394D39404C0822F867809F0D39423FDB4
S113177013C020FF06C01C2DD51418F4150D1D1917
S1131780D52CD51468F4B70180E290E02B8B0E942D
S11317907C0DD3942B89F5CFD51410F45D1801C0BA
S11317A0512C24FF12C0B70180E390E02B8B0E94E0
S11317B07C0D2B8922FF17C021FF03C088E590E030
S11317C002C088E790E0B7010CC0822F867859F0F8
S11317D021FD02C080E201C08BE227FD8DE2B7014A
S11317E090E00E947C0DC11638F4B70180E390E0CC
S11317F00E947C0D1150F7CFCA94F401EC0DF11D39
S11318008081B70190E00E947C0DC110F5CF552076
S113181009F4C2CCB70180E290E00E947C0D5A9496
S1131820F6CFF7018681978102C08FEF9FEF639611
S1131830E2E10C94640CA1E21A2EAA1BBB1BFD016D
S11318400DC0AA1FBB1FEE1FFF1FA217B307E4079B
S1131850F50720F0A21BB30BE40BF50B661F771FF3
S1131860881F991F1A9469F76095709580959095D3
S11318709B01AC01BD01CF0108950E947F0CA59F7F
S1131880900DB49F900DA49F800D911D1124089577
S11318902F923F924F925F926F927F928F929F927C
S11318A0AF92BF92CF92DF92EF92FF920F931F936A
S11318B0CF93DF93CDB7DEB7CA1BDB0B0FB6F8941B
S11318C0DEBF0FBECDBF09942A88398848885F845B
S11318D06E847D848C849B84AA84B984C884DF80CC
S11318E0EE80FD800C811B81AA81B981CE0FD11DB0
S11318F00FB6F894DEBF0FBECDBFED010895A29FD1
S1131900B001B39FC001A39F700D811D1124911DCF
S1131910B29F700D811D1124911D0895283008F087
S113192027E03327DA01990F311D87FD9160009676
S11319306105710539F432602E5F3D9330E32A95D9
S1131940E1F708959F3F30F080387105610509F093
S11319503C5F3C5F3D93913008F08068911DDF93BC
S1131960CF931F930F93FF92EF92192F987F969521
S1131970E92F96959695E90FFF27EA54FF4F99278B
S11319803327EE24FF24A701E70105900894079468
S113199028F4360FE71EF81E491F511D660F771FE6
S11319A0881F991F0694A1F70590079428F4E70E61
S11319B0F81E491F561FC11D770F881F991F661FE8
S11319C00694A1F70590079428F4F80E491F561FB2
S11319D0C71FD11D880F991F661F771F0694A1F793
S11319E00590079420F4490F561FC71FD81F990F5D
S11319F0661F771F881F0694A9F7849110951770A6
S1131A0041F0D695C79557954795F794E7941A955D
S1131A10C1F7ECE5F0E06894159015913591659166
S1131A20959105907FE27395E118F10A430B560BEB
S1131A30C90BD009C0F7E10CF11E431F561FC91F83
S1131A40D01D7EF4703311F48A95E6CFE8940150EA
S1131A5030F0080F0AF40027021708F4202F23950A
S1131A60022F7A3328F079E37D932A95E9F710C0A1
S1131A707D932A9589F606949795679537951795DA
S1131A801794E118F10A430B560BC90BD00998F0CF
S1131A9023957E9173957A3308F070E37C93201339
S1131AA0B8F77E9170617D9330F0839571E37D93F7
S1131AB070E32A95E1F71124EF90FF900F911F91A5
S1131AC0CF91DF91992787FD90950895FC010590AA
S1131AD0615070400110D8F7809590958E0F9F1F2C
S1131AE00895FC016150704001900110D8F7809571
S1131AF090958E0F9F1F08950F931F93CF93DF939D
S1131B00182F092FEB018B8181FD03C08FEF9FEF0D
S1131B1020C082FF10C04E815F812C813D8142171D
S1131B2053077CF4E881F9819F012F5F3F4F39838C
S1131B302883108306C0E885F985812F0995892BB0
S1131B4029F72E813F812F5F3F4F3F832E83812FC3
S1131B50902FDF91CF911F910F910895AEE0B0E0E7
S1131B60E4EBFDE00C94560C0D891E8986E08C8311
S1131B701A8309838FEF9FE79E838D83AE01475EAF
S1131B805F4F6F89788DCE0101960E94A008EF8186
S1131B90F885E00FF11F10822E96E4E00C94720C8D
S1131BA0FA01AA27283051F1203181F1E8946F938A
S1131BB06E7F6E5F7F4F8F4F9F4FAF4FB1E03ED030
S1131BC0B4E03CD0670F781F891F9A1FA11D680FCE
S1131BD0791F8A1F911DA11D6A0F711D811D911D01
S1131BE0A11D20D009F468943F912AE0269F112476
S1131BF03019305D3193DEF6CF010895462F4770DA
S1131C00405D4193B3E00FD0C9F7F6CF462F4F7034
S1131C10405D4A3318F0495D31FD4052419302D092
S1131C20A9F7EACFB4E0A695979587957795679538
S1131C30BA95C9F700976105710508959B01AC0138
S1131C400A2E06945795479537952795BA95C9F75F
S1131C50620F731F841F951FA01D0895F894FFCF72
S1131C600F001E000000A04064000A00C409DC0547
S1131C704572706D207C005072706D207C00506144
S1111C80207C002564200025322E31662000D1
S9030000FC
